{
  "contractName": "CrowdFunding",
  "abi": [
    {
      "constant": true,
      "inputs": [],
      "name": "ended",
      "outputs": [
        {
          "name": "",
          "type": "bool"
        }
      ],
      "payable": false,
      "stateMutability": "view",
      "type": "function"
    },
    {
      "constant": true,
      "inputs": [],
      "name": "numInvestors",
      "outputs": [
        {
          "name": "",
          "type": "uint256"
        }
      ],
      "payable": false,
      "stateMutability": "view",
      "type": "function"
    },
    {
      "constant": true,
      "inputs": [],
      "name": "totalAmount",
      "outputs": [
        {
          "name": "",
          "type": "uint256"
        }
      ],
      "payable": false,
      "stateMutability": "view",
      "type": "function"
    },
    {
      "constant": true,
      "inputs": [],
      "name": "status",
      "outputs": [
        {
          "name": "",
          "type": "string"
        }
      ],
      "payable": false,
      "stateMutability": "view",
      "type": "function"
    },
    {
      "constant": true,
      "inputs": [],
      "name": "goalAmount",
      "outputs": [
        {
          "name": "",
          "type": "uint256"
        }
      ],
      "payable": false,
      "stateMutability": "view",
      "type": "function"
    },
    {
      "constant": true,
      "inputs": [],
      "name": "deadline",
      "outputs": [
        {
          "name": "",
          "type": "uint256"
        }
      ],
      "payable": false,
      "stateMutability": "view",
      "type": "function"
    },
    {
      "constant": true,
      "inputs": [
        {
          "name": "",
          "type": "uint256"
        }
      ],
      "name": "investors",
      "outputs": [
        {
          "name": "addr",
          "type": "address"
        },
        {
          "name": "amount",
          "type": "uint256"
        }
      ],
      "payable": false,
      "stateMutability": "view",
      "type": "function"
    },
    {
      "constant": true,
      "inputs": [],
      "name": "owner",
      "outputs": [
        {
          "name": "",
          "type": "address"
        }
      ],
      "payable": false,
      "stateMutability": "view",
      "type": "function"
    },
    {
      "inputs": [
        {
          "name": "_duration",
          "type": "uint256"
        },
        {
          "name": "_goalAmount",
          "type": "uint256"
        }
      ],
      "payable": false,
      "stateMutability": "nonpayable",
      "type": "constructor"
    },
    {
      "constant": false,
      "inputs": [],
      "name": "fund",
      "outputs": [],
      "payable": true,
      "stateMutability": "payable",
      "type": "function"
    },
    {
      "constant": false,
      "inputs": [],
      "name": "checkGoalReached",
      "outputs": [],
      "payable": false,
      "stateMutability": "nonpayable",
      "type": "function"
    },
    {
      "constant": false,
      "inputs": [],
      "name": "kill",
      "outputs": [],
      "payable": false,
      "stateMutability": "nonpayable",
      "type": "function"
    }
  ],
  "bytecode": "0x608060405234801561001057600080fd5b50604051604080610bcc8339810180604052810190808051906020019092919080519060200190929190505050336000806101000a81548173ffffffffffffffffffffffffffffffffffffffff021916908373ffffffffffffffffffffffffffffffffffffffff160217905550814201600281905550806005819055506040805190810160405280600781526020017f46756e64696e6700000000000000000000000000000000000000000000000000815250600390805190602001906100d892919061010b565b506000600460006101000a81548160ff0219169083151502179055506000600181905550600060068190555050506101b0565b828054600181600116156101000203166002900490600052602060002090601f016020900481019282601f1061014c57805160ff191683800117855561017a565b8280016001018555821561017a579182015b8281111561017957825182559160200191906001019061015e565b5b509050610187919061018b565b5090565b6101ad91905b808211156101a9576000816000905550600101610191565b5090565b90565b610a0d806101bf6000396000f3006080604052600436106100af576000357c0100000000000000000000000000000000000000000000000000000000900463ffffffff16806301cb3b20146100b457806312fa6feb146100cb578063132ae5e9146100fa5780631a39d8ef14610125578063200d2ed2146101505780632636b945146101e057806329dcb0cf1461020b5780633feb5f2b1461023657806341c0e1b5146102aa5780638da5cb5b146102c1578063b60d428814610318575b600080fd5b3480156100c057600080fd5b506100c9610322565b005b3480156100d757600080fd5b506100e06106cf565b604051808215151515815260200191505060405180910390f35b34801561010657600080fd5b5061010f6106e2565b6040518082815260200191505060405180910390f35b34801561013157600080fd5b5061013a6106e8565b6040518082815260200191505060405180910390f35b34801561015c57600080fd5b506101656106ee565b6040518080602001828103825283818151815260200191508051906020019080838360005b838110156101a557808201518184015260208101905061018a565b50505050905090810190601f1680156101d25780820380516001836020036101000a031916815260200191505b509250505060405180910390f35b3480156101ec57600080fd5b506101f561078c565b6040518082815260200191505060405180910390f35b34801561021757600080fd5b50610220610792565b6040518082815260200191505060405180910390f35b34801561024257600080fd5b5061026160048036038101908080359060200190929190505050610798565b604051808373ffffffffffffffffffffffffffffffffffffffff1673ffffffffffffffffffffffffffffffffffffffff1681526020018281526020019250505060405180910390f35b3480156102b657600080fd5b506102bf6107dc565b005b3480156102cd57600080fd5b506102d6610871565b604051808273ffffffffffffffffffffffffffffffffffffffff1673ffffffffffffffffffffffffffffffffffffffff16815260200191505060405180910390f35b610320610896565b005b60008060009054906101000a900473ffffffffffffffffffffffffffffffffffffffff1673ffffffffffffffffffffffffffffffffffffffff163373ffffffffffffffffffffffffffffffffffffffff1614151561037f57600080fd5b600460009054906101000a900460ff1615151561039b57600080fd5b60025442101515156103ac57600080fd5b60055460065410151561052c576040805190810160405280601281526020017f43616d706169676e2053756363656564656400000000000000000000000000008152506003908051906020019061040492919061093c565b506001600460006101000a81548160ff0219169083151502179055506000809054906101000a900473ffffffffffffffffffffffffffffffffffffffff1673ffffffffffffffffffffffffffffffffffffffff166108fc3073ffffffffffffffffffffffffffffffffffffffff16319081150290604051600060405180830381858888f193505050501515610527576040517f08c379a00000000000000000000000000000000000000000000000000000000081526004018080602001828103825260278152602001807f4661696c656420746f2073656e64207468652062616c616e636520746f20746881526020017f65206f776e65720000000000000000000000000000000000000000000000000081525060400191505060405180910390fd5b6106cc565b600090506040805190810160405280600f81526020017f43616d706169676e204661696c656400000000000000000000000000000000008152506003908051906020019061057b92919061093c565b506001600460006101000a81548160ff0219169083151502179055505b600154811115156106cb576007600082815260200190815260200160002060000160009054906101000a900473ffffffffffffffffffffffffffffffffffffffff1673ffffffffffffffffffffffffffffffffffffffff166108fc60076000848152602001908152602001600020600101549081150290604051600060405180830381858888f1935050505015156106be576040517f08c379a00000000000000000000000000000000000000000000000000000000081526004018080602001828103825260278152602001807f4661696c656420746f2073656e64207468652062616c616e636520746f20696e81526020017f766573746f72730000000000000000000000000000000000000000000000000081525060400191505060405180910390fd5b8080600101915050610598565b5b50565b600460009054906101000a900460ff1681565b60015481565b60065481565b60038054600181600116156101000203166002900480601f0160208091040260200160405190810160405280929190818152602001828054600181600116156101000203166002900480156107845780601f1061075957610100808354040283529160200191610784565b820191906000526020600020905b81548152906001019060200180831161076757829003601f168201915b505050505081565b60055481565b60025481565b60076020528060005260406000206000915090508060000160009054906101000a900473ffffffffffffffffffffffffffffffffffffffff16908060010154905082565b6000809054906101000a900473ffffffffffffffffffffffffffffffffffffffff1673ffffffffffffffffffffffffffffffffffffffff163373ffffffffffffffffffffffffffffffffffffffff1614151561083757600080fd5b6000809054906101000a900473ffffffffffffffffffffffffffffffffffffffff1673ffffffffffffffffffffffffffffffffffffffff16ff5b6000809054906101000a900473ffffffffffffffffffffffffffffffffffffffff1681565b6000600460009054906101000a900460ff161515156108b457600080fd5b60076000600160008154809291906001019190505581526020019081526020016000209050338160000160006101000a81548173ffffffffffffffffffffffffffffffffffffffff021916908373ffffffffffffffffffffffffffffffffffffffff160217905550348160010181905550806001015460066000828254019250508190555050565b828054600181600116156101000203166002900490600052602060002090601f016020900481019282601f1061097d57805160ff19168380011785556109ab565b828001600101855582156109ab579182015b828111156109aa57825182559160200191906001019061098f565b5b5090506109b891906109bc565b5090565b6109de91905b808211156109da5760008160009055506001016109c2565b5090565b905600a165627a7a72305820f8b7ae62a53ad5b77ac11d52b829acda7ccbc99ff00373a57e67e916244c9c740029",
  "source": "pragma solidity ^0.4.23;\n\ncontract CrowdFunding {\n\n  struct Investor {\n    address addr;\n    uint amount;\n  }\n\n  address public owner;\n  uint public numInvestors;\n  uint public deadline;\n  string public status;\n  bool public ended;\n  uint public goalAmount;\n  uint public totalAmount;\n  mapping (uint => Investor) public investors;\n\n  modifier onlyOwner () {\n    require(msg.sender == owner);\n    _;\n  }\n\n  constructor(uint _duration, uint _goalAmount) public {\n    owner = msg.sender;\n\n    deadline = now + _duration;\n\n    goalAmount = _goalAmount;\n    status = \"Funding\";\n    ended = false;\n\n    numInvestors = 0;\n    totalAmount = 0;\n  }\n\n  function fund() public payable {\n    require(!ended);\n\n    Investor storage inv = investors[numInvestors++];\n    inv.addr = msg.sender;\n    inv.amount = msg.value;\n    totalAmount += inv.amount;\n  }\n\n  function checkGoalReached() public onlyOwner {\n    require(!ended);\n\n    require(now >= deadline);\n    if(totalAmount >= goalAmount) {\n      status = \"Campaign Succeeded\";\n      ended = true;\n      if(!owner.send(address(this).balance)) {\n        revert(\"Failed to send the balance to the owner\");\n      }\n    } else {\n      uint i = 0;\n      status = \"Campaign Failed\";\n      ended = true;\n\n      while(i <= numInvestors) {\n        if(!investors[i].addr.send(investors[i].amount)) {\n          revert(\"Failed to send the balance to investors\");\n        }\n        i++;\n      }\n    }\n  }\n\n  function kill() public onlyOwner {\n    selfdestruct(owner);\n  }\n}\n\n",
  "sourcePath": "/Users/ykazama/dev/blockchain/crowd_funding/contracts/CrowdFunding.sol",
  "compiler": {
    "name": "solc",
    "version": "0.4.24+commit.e67f0147.Emscripten.clang"
  },
  "schemaVersion": "2.0.1",
  "updatedAt": "2018-11-11T02:46:36.115Z"
}